:100000000C9434000C9451000C9451000C94510049
:100010000C9451000C9451000C9451000C9451001C
:100020000C9451000C9451000C9451000C9451000C
:100030000C9451000C9451000C94C7020C94510084
:100040000C9451000C9451000C9427020C947602ED
:100050000C9451000C9451000C9451000C945100DC
:100060000C9451000C94510011241FBECFEFD8E026
:10007000DEBFCDBF11E0A0E0B1E0E2EEF5E002C0EE
:1000800005900D92A43FB107D9F722E0A4EFB1E0AB
:1000900001C01D92A038B207E1F70E9453000C94F2
:1000A000EF020C940000CF93DF932F923F924F9278
:1000B0005F926F927F928F929F92AF92BF92CF92F8
:1000C000DF92EF92FF920F931F93CDB7DEB7259784
:1000D0000FB6F894DEBF0FBECDBFF894A89584B7D5
:1000E000877F84BF8091600088618093600080E09A
:1000F000809360007894259A2D9A0E94D10078947C
:1001000080E591E065E170E00E94290185E691E0DB
:1001100061E070E07C016B010E94290182E48D8323
:1001200082E492E48B839C8389839A8300E010E0CD
:1001300088EE93E04C01CE0101963C0185E090E011
:100140002C011801580108C09301D901AE0FBF1F3F
:100150008C9331961F0185010E94CD018017910774
:1001600041F00E94EC019201F101E217F30760F304
:1001700011C02016310621F0C301B2010E94E8002F
:10018000C701B6010E942901C4010E941302850122
:100190001801E2CF80E091E045E050E0BF010E940D
:1001A000EE0280E08093C50080E18093C4008091DE
:1001B000C00082608093C00088E18093C10086E027
:1001C0008093C2008091C10080688093C10008952F
:1001D0000F931F93DC0180E090E06817790709F422
:1001E0002AC06A0F7B1F80E490E02D918D01A091C1
:1001F0003A02B0913B02FD013196EF73F0704091ED
:10020000380250913902E417F50709F417C0A8170E
:10021000B907C0F4A850BE4F2C93F0933B02E09373
:100220003A022091C10020622093C100D801A61794
:10023000B70709F0DACF1F910F9108958CE091E094
:100240000E94ED028CE191E040E450E0BD010E948B
:10025000EE02CF92DF92EF92FF920F931F9320E076
:1002600030E06217730709F486C0680F791F20E435
:1002700030E0690140E050E07A01FC012191222345
:100280001AF0CF01422F53C0E617F70749F0029644
:1002900040814F7355278C01FC01203E30F410C083
:1002A0008B01C701AC01203E58F0C80106171707A3
:1002B00089F0FC01A191AF730A2F1127CF010CC067
:1002C000220F220F220F220F220F220F422B532B1D
:1002D000CF012DC0CB018701440F551F440F551F7F
:1002E000440F551F440F551F440F551F440F551FF2
:1002F000402B512B203F48F08617970741F0DC0137
:10030000ED91CD01EF73FF2704C0CF0110C0CF01E5
:10031000F701440F551F440F551F440F551F440F3D
:10032000551F440F551F440F551F4E2B5F2BA09197
:100330003A02B0913B02FD013196EF73F0700091EB
:10034000380210913902E017F10709F41BC0960139
:10035000A217B307D8F4A850BE4F4C93F0933B02BA
:10036000E0933A024091C10040624093C100861779
:10037000970709F082CF1F910F91FF90EF90DF90C8
:10038000CF9008958CE091E00E94ED028CE191E025
:1003900040E450E0BD010E94EE0220917C023091C9
:1003A0007D0280917E0290917F0241E08217930747
:1003B00008F040E05527440F551F440F551F440FC8
:1003C000551F440F551F440F551F440F551F821BC7
:1003D000930B840F951F0895E0917C02F0917D02AC
:1003E00080917E0290917F02E817F90789F080E4FE
:1003F00090E0E817F90780F4DF01A45CBD4F8C9111
:100400003196EF73F070F0937D02E0937C020895D3
:1004100084E391E00E94ED0288E291E040E450E044
:10042000BF010E94EE0220E030E08217930771F0D6
:1004300020E030E04AE65AE0F9013196D901119600
:10044000A417B507E0F3E817F907B8F308950F927A
:100450001F920FB60F9200240F921F922F933F937B
:100460004F935F936F937F938F939F93AF93BF93BC
:10047000EF93FF938091C600A0917E02B0917F021E
:10048000FD013196EF73F07020917C0230917D0276
:10049000E217F30709F41FC020E430E0A217B30706
:1004A000F0F4A45CBD4F8C93F0937F02E0937E0246
:1004B000FF91EF91BF91AF919F918F917F916F913C
:1004C0005F914F913F912F911F900F900F900FBE12
:1004D0001F900F9018958CE091E00E94ED028CE146
:1004E00091E040E450E0BD010E94EE020F921F92A5
:1004F0000FB60F9200240F921F922F933F934F93AA
:100500005F936F937F938F939F93AF93BF93EF937B
:10051000FF93E0913802F091390280913A02909174
:100520003B02E817F90731F48091C1008F7D809379
:10053000C10013C080E490E0E817F90708F020C07C
:10054000DF01A850BE4F8C913196EF73F070F0939D
:100550003902E09338028093C600FF91EF91BF917A
:10056000AF919F918F917F916F915F914F913F914B
:100570002F911F900F900F900FBE1F900F90189506
:1005800088E291E040E450E0BF010E94EE020F9249
:100590001F920FB60F9200242F933F938F939F9338
:1005A0008091F4019091F5012091F6013091F701CD
:1005B0008F5F9F4F2F4F3F4F3093F7012093F601EE
:1005C0009093F5018093F4019F918F913F912F912A
:1005D0000F900FBE1F900F901895FFCFFFCFF8948C
:0205E000FFCF4B
:1005E200B3000B00470000000400000000000E00F2
:1005F200C00033003000000008000000C0003300DB
:100602003100000009000000C00033003700000084
:100612001400000000000E00E00033003D00000066
:1006220004000000000000000000000000000000C4
:100632006176725F746573745F6275665F6F76650B
:1006420072666C6F770A7372632F6D61696E2E72B8
:10065200736578706C696369742070616E69630098
:100662002F686F6D652F757365722F4465762F4500
:100672006D6265646465642D527573742F73726361
:100682002F6176726C69622F7372632F6669666F6F
:100692002E72730000000000000000000000000045
:1006A2002F686F6D652F757365722F4465762F45C0
:1006B2006D6265646465642D527573742F73726321
:1006C2002F6176726C69622F7372632F7561727417
:0406D2002E72730011
:00000001FF
