:100000000C9434000C9451000C9451000C94510049
:100010000C9451000C9451000C9451000C9451001C
:100020000C9451000C9451000C9451000C9451000C
:100030000C9451000C9451000C942D030C9451001D
:100040000C9451000C9451000C948D020C94DC0221
:100050000C9451000C9451000C9451000C945100DC
:100060000C9451000C94510011241FBECFEFD8E026
:10007000DEBFCDBF11E0A0E0B1E0EEEAF6E002C0E5
:1000800005900D92A43EB107D9F722E0A4EEB1E0AD
:1000900001C01D92A037B207E1F70E94C2000C9484
:1000A00055030C940000CF93DF93CDB7DEB7609774
:1000B0000FB6F894DEBF0FBECDBF861708F059C04B
:1000C00020E030E02F87388B2D873E872B873C87B9
:1000D00029873A872F8338872D833E832B833C8360
:1000E00029833A8390E097B996B1998396B19A8320
:1000F00096B19B8396B19C8396B19D8396B19E8366
:1001000096B19F8396B1988796B1998796B19A8751
:1001100096B19B8796B19C8796B19D8796B19E8735
:1001200096B19F8796B1988B83950E9453008FEF6D
:1001300087B9898188B98A8188B98B8188B98C818E
:1001400088B98D8188B98E8188B98F8188B9888571
:1001500088B9898588B98A8588B98B8588B98C855D
:1001600088B98D8588B98E8588B98F8588B9888941
:1001700088B960960FB6F894DEBF0FBECDBFDF9191
:10018000CF910895CF93DF932F923F924F925F923A
:100190006F927F928F929F92AF92BF92CF92DF9297
:1001A000EF92FF921F93CDB7DEB723970FB6F89467
:1001B000DEBF0FBECDBFF894A89584B7877F84BFFC
:1001C0008091600088618093600010E0109360006F
:1001D0007894259A2D980E947D01789480E491E08E
:1001E00067E170E00E94D50187E591E061E070E091
:1001F0005B010E94D50188EE93E00E947902CE0156
:1002000001964C0183E090E03C0188E591E02C01EF
:1002100082E390E07C016401C601612F0E942B0102
:10022000C601B3010E949401C2016501B6010E949A
:10023000D5011701C1010E94790280E0612F0E945F
:10024000530087E591E0B6010E94D501C1010E94EB
:1002500079021395E0CFCF93DF93EF92FF921F9334
:10026000CDB7DEB723970FB6F894DEBF0FBECDBF74
:1002700020E230E229833A8320E32B83603009F4C3
:1002800022C0E2E0F0E023E030E079019E012F5F40
:100290003F4F4DEC5AE0D701EA17FB0708F026C0A4
:1002A000D901AE0FBF1F649F712D112476957695ED
:1002B000769575021124162F101910631C9331972F
:1002C0006A30672F40F729813A81DC012D933D93F5
:1002D0008B818C9323960FB6F894DEBF0FBECDBFF3
:1002E0001F91FF90EF90DF91CF91089580E091E012
:1002F00043E050E0BF010E94540380E08093C500BA
:1003000080E18093C4008091C00082608093C0002F
:1003100088E18093C10086E08093C2008091C10093
:1003200080688093C10008950F931F93DC0180E0E3
:1003300090E06817790709F42AC06A0F7B1F80E4F0
:1003400090E02D918D01A0912A02B0912B02FD0128
:100350003196EF73F0704091280250912902E41712
:10036000F50709F417C0A817B907C0F4A851BE4F84
:100370002C93F0932B02E0932A022091C10020627B
:100380002093C100D801A617B70709F0DACF1F9153
:100390000F9108958CE091E00E9453038CE191E06D
:1003A00040E450E0BD010E945403CF92DF92EF92EF
:1003B000FF920F931F9320E030E06217730709F458
:1003C00086C0680F791F20E430E0690140E050E00A
:1003D0007A01FC01219122231AF0CF01422F53C050
:1003E000E617F70749F0029640814F7355278C01B5
:1003F000FC01203E30F410C08B01C701AC01203E4F
:1004000058F0C8010617170789F0FC01A191AF73D6
:100410000A2F1127CF010CC0220F220F220F220F0B
:10042000220F220F422B532BCF012DC0CB0187016E
:10043000440F551F440F551F440F551F440F551FA0
:10044000440F551F440F551F402B512B203F48F0A0
:100450008617970741F0DC01ED91CD01EF73FF277F
:1004600004C0CF0110C0CF01F701440F551F440F46
:10047000551F440F551F440F551F440F551F440F60
:10048000551F4E2B5F2BA0912A02B0912B02FD012C
:100490003196EF73F0700091280210912902E01755
:1004A000F10709F41BC09601A217B307D8F4A851AD
:1004B000BE4F4C93F0932B02E0932A024091C1006F
:1004C00040624093C1008617970709F082CF1F91C1
:1004D0000F91FF90EF90DF90CF9008958CE091E026
:1004E0000E9453038CE191E040E450E0BD010E9482
:1004F000540320E030E08217930771F020E030E0F1
:100500004AE65AE0F9013196D9011196A417B507C8
:10051000E0F3E817F907B8F308950F921F920FB6AA
:100520000F9200240F921F922F933F934F935F934C
:100530006F937F938F939F93AF93BF93EF93FF93AB
:100540008091C600A0916E02B0916F02FD013196BC
:10055000EF73F07020916C0230916D02E217F30797
:1005600009F41FC020E430E0A217B307F0F4A45D43
:10057000BD4F8C93F0936F02E0936E02FF91EF9169
:10058000BF91AF919F918F917F916F915F914F91AB
:100590003F912F911F900F900F900FBE1F900F90C3
:1005A00018958CE091E00E9453038CE191E040E4C7
:1005B00050E0BD010E9454030F921F920FB60F929C
:1005C00000240F921F922F933F934F935F936F934B
:1005D0007F938F939F93AF93BF93EF93FF93E0919C
:1005E0002802F091290280912A0290912B02E817AB
:1005F000F90731F48091C1008F7D8093C10013C051
:1006000080E490E0E817F90708F020C0DF01A85166
:10061000BE4F8C913196EF73F070F0932902E09306
:1006200028028093C600FF91EF91BF91AF919F91F7
:100630008F917F916F915F914F913F912F911F907B
:100640000F900F900FBE1F900F90189588E291E0C9
:1006500040E450E0BF010E9454030F921F920FB676
:100660000F9200242F933F938F939F938091E401E7
:100670009091E5012091E6013091E7018F5F9F4F56
:100680002F4F3F4F3093E7012093E6019093E50110
:100690008093E4019F918F913F912F910F900FBE16
:0E06A0001F900F901895FFCFFFCFF894FFCF5B
:1006AE00B00033000F0000001600000000000E0026
:1006BE00D80033003000000008000000D8003300DE
:1006CE003100000009000000D800330037000000A0
:1006DE0014000000000000000000000000000000F8
:1006EE006176725F746573745F737461636B5F6F51
:1006FE00766572666C6F770A2000000000000000BD
:10070E002F686F6D652F757365722F4465762F4553
:10071E006D6265646465642D527573742F737263B4
:10072E002F6176726C69622F7372632F69746F61B9
:10073E002E72736578706C696369742070616E696E
:10074E006300000000000000000000000000000038
:10075E002F686F6D652F757365722F4465762F4503
:10076E006D6265646465642D527573742F73726364
:10077E002F6176726C69622F7372632F6669666F72
:04078E002E72730054
:00000001FF
