:100000000C9434000C9451000C9451000C94510049
:100010000C9451000C9451000C9451000C9451001C
:100020000C9451000C9451000C9451000C9451000C
:100030000C9451000C9451000C947C030C945100CE
:100040000C9451000C9451000C94DC020C942B0382
:100050000C9451000C9451000C9451000C945100DC
:100060000C9451000C94510011241FBECFEFD8E026
:10007000DEBFCDBF12E0A0E0B1E0E0E9F7E002C0F2
:1000800005900D92A432B107D9F722E0A4E2B2E0C4
:1000900001C01D92A03BB207E1F70E9453000C94EF
:1000A000C6030C940000CF93DF934F925F926F9240
:1000B0007F928F929F92AF92BF92CF92DF92EF92F8
:1000C000FF920F931F93CDB7DEB72A970FB6F89420
:1000D000DEBF0FBECDBF259A0E9445010E94C70218
:1000E000789484E491E06EE070E00E94C90182E5BA
:1000F00091E061E070E07C016B010E94C90180E049
:1001000090E05C018E010F5F1F4F8AE090E04C0190
:1001100084EF91E02C0104C00E948C020E945C01DB
:100120000E946D02950182179307B1F70E94D302D6
:100130009C01C801AB01B9010E94B000C801B40123
:100140000E948801C701B6010E94C9013201C301A2
:100150000E94B3022D98C3010E94B3022D9AE0CFF2
:10016000CF93DF932F923F924F925F926F927F9245
:100170008F929F92AF92BF92CF92DF92EF92FF92B7
:100180000F931F93CDB7DEB72A970FB6F894DEBF53
:100190000FBECDBF7B016A015C0180E2898780E2EE
:1001A00090E28F8398878D839E838B839C83898342
:1001B0009A8380E38A8720E030E081E0C216D3068C
:1001C0003901E206F30609F080E08170803009F021
:1001D00027C0E9E0F0E00AE010E0CE0101961C0142
:1001E000E017F1072F0108F049C0B601C7019801D7
:1001F0004301A4010E94A4036063C101DC01A40DBA
:10020000B51D6C9381E0C016D106E804F904F20133
:1002100008F080E081703197803069017A0101F344
:1002200089859A85F501808791878F819885868356
:1002300097838D819E818483958389819A8181931F
:1002400091938B819C81808391832A960FB6F89439
:10025000DEBF0FBECDBF1F910F91FF90EF90DF90DB
:10026000CF90BF90AF909F908F907F906F905F9056
:100270004F903F902F90DF91CF91089580E091E0D3
:100280004AE050E0B2010E94A30380E08093C500E1
:1002900080E18093C4008091C00082608093C000A0
:1002A00088E18093C10086E08093C2008091C10004
:1002B00080688093C1000895A0916A02B0916B029A
:1002C000FD013196EF73F070209168023091690260
:1002D000E217F30791F020E430E0A217B30788F4A7
:1002E000A85DBD4F8C93F0936B02E0936A028091FE
:1002F000C10080628093C10008958CE091E00E946B
:10030000A2038CE191E040E450E0BD010E94A30310
:100310000F931F93DC0180E090E06817790709F4E0
:100320002AC06A0F7B1F80E490E02D918D01A0917F
:100330006A02B0916B02FD013196EF73F07040914B
:10034000680250916902E417F50709F417C0A8176D
:10035000B907C0F4A85DBD4F2C93F0936B02E093F6
:100360006A022091C10020622093C100D801A61723
:10037000B70709F0DACF1F910F9108958CE091E053
:100380000E94A2038CE191E040E450E0BD010E9494
:10039000A303CF92DF92EF92FF920F931F9320E07F
:1003A00030E06217730709F486C0680F791F20E4F4
:1003B00030E0690140E050E07A01FC012191222304
:1003C0001AF0CF01422F53C0E617F70749F0029603
:1003D00040814F7355278C01FC01203E30F410C042
:1003E0008B01C701AC01203E58F0C8010617170762
:1003F00089F0FC01A191AF730A2F1127CF010CC026
:10040000220F220F220F220F220F220F422B532BDB
:10041000CF012DC0CB018701440F551F440F551F3D
:10042000440F551F440F551F440F551F440F551FB0
:10043000402B512B203F48F08617970741F0DC01F5
:10044000ED91CD01EF73FF2704C0CF0110C0CF01A4
:10045000F701440F551F440F551F440F551F440FFC
:10046000551F440F551F440F551F4E2B5F2BA09156
:100470006A02B0916B02FD013196EF73F07000914A
:10048000680210916902E017F10709F41BC0960198
:10049000A217B307D8F4A85DBD4F4C93F0936B023D
:1004A000E0936A024091C10040624093C100861708
:1004B000970709F082CF1F910F91FF90EF90DF9087
:1004C000CF9008958CE091E00E94A2038CE191E02E
:1004D00040E450E0BD010E94A3032091AC023091A2
:1004E000AD028091AE029091AF0241E08217930776
:1004F00008F040E05527440F551F440F551F440F87
:10050000551F440F551F440F551F440F551F821B85
:10051000930B840F951F0895E091AC02F091AD020A
:100520008091AE029091AF02E817F90789F080E45C
:1005300090E0E817F90780F4DF01A459BD4F8C91D2
:100540003196EF73F070F093AD02E093AC02089532
:1005500084E391E00E94A20388E291E040E450E04D
:10056000BF010E94A30320E030E08217930771F0DF
:1005700020E030E04AE65AE0F9013196D9011196BF
:10058000A417B507E0F3E817F907B8F3089584B5A1
:10059000826084BD85B5836085BD89EF87BD82E0BB
:1005A00080936E00089580912602909127026091B9
:1005B00024027091250208950F921F920FB60F9298
:1005C00000240F921F922F933F934F935F936F934B
:1005D0007F938F939F93AF93BF93EF93FF938091FC
:1005E000C600A091AE02B091AF02FD013196EF734B
:1005F000F0702091AC023091AD02E217F30709F4DC
:100600001FC020E430E0A217B307F0F4A459BD4F97
:100610008C93F093AF02E093AE02FF91EF91BF9104
:10062000AF919F918F917F916F915F914F913F918A
:100630002F911F900F900F900FBE1F900F90189545
:100640008CE091E00E94A2038CE191E040E450E054
:10065000BD010E94A3030F921F920FB60F920024B8
:100660000F921F922F933F934F935F936F937F93BC
:100670008F939F93AF93BF93EF93FF93E0916802A3
:10068000F091690280916A0290916B02E817F90774
:1006900031F48091C1008F7D8093C10013C080E44C
:1006A00090E0E817F90708F020C0DF01A85DBD4F12
:1006B0008C913196EF73F070F0936902E0936802C9
:1006C0008093C600FF91EF91BF91AF919F918F9161
:1006D0007F916F915F914F913F912F911F900F905C
:1006E0000F900FBE1F900F90189588E291E040E4A4
:1006F00050E0BF010E94A3030F921F920FB60F920A
:1007000000242F933F938F939F9380912402909185
:10071000250220912602309127028F5F9F4F2F4F95
:100720003F4F309327022093260290932502809317
:1007300024029F918F913F912F910F900FBE1F9098
:100740000F901895FFCFFFCFA1E21A2EAA1BBB1B5B
:10075000FD010DC0AA1FBB1FEE1FFF1FA217B3078D
:10076000E407F50720F0A21BB30BE40BF50B661FA3
:10077000771F881F991F1A9469F760957095809567
:1007800090959B01AC01BD01CF010895F894FFCF76
:10079000B00033000F0000001600000000000E0043
:1007A000D80033003000000008000000D8003300FB
:1007B0003100000009000000D800330037000000BD
:1007C0001400000000000E00F80033003D0000009F
:1007D000040000006176725F746573745F62617318
:1007E00069630A0000000000000000000000000033
:1007F0002F686F6D652F757365722F4465762F4571
:100800006D6265646465642D527573742F737263D1
:100810002F6176726C69622F7372632F69746F61D6
:100820002E72736578706C696369742070616E698B
:100830006300000000000000000000000000000055
:100840002F686F6D652F757365722F4465762F4520
:100850006D6265646465642D527573742F73726381
:100860002F6176726C69622F7372632F6669666F8F
:100870002E72730000000000000000000000000065
:100880002F686F6D652F757365722F4465762F45E0
:100890006D6265646465642D527573742F73726341
:1008A0002F6176726C69622F7372632F7561727437
:0408B0002E72730031
:00000001FF
