:100000000C9434000C9451000C9451000C94510049
:100010000C9451000C9451000C9451000C9451001C
:100020000C9451000C9451000C9451000C9451000C
:100030000C9451000C9451000C94F7030C94510053
:100040000C9451000C9451000C9457030C94A6038B
:100050000C9451000C9451000C9451000C945100DC
:100060000C9451000C94510011241FBECFEFD8E026
:10007000DEBFCDBF12E0A0E0B1E0E6E8F8E002C0EC
:1000800005900D92A435B107D9F723E0A4E5B2E0BD
:1000900001C01D92A038B207E1F70E94C1000C9484
:1000A00041040C940000EF92FF920F931F93182FBE
:1000B000E12FFF27183208F053C0103039F011300B
:1000C00049F420E030E081E090E03BC080E090E047
:1000D0009C0137C0812F8A957F010E9453001250E6
:1000E000812F0E945300C701DC01119708E210E044
:1000F000A017B10708F037C00297AA0FBB1FAA0FBD
:10010000BB1FFD01EA5AFD4F41915081FC01AC5AE1
:10011000BD4F6D917C91E017F10708F02BC0EE0FF9
:10012000FF1FEE0FFF1FDF01AC5ABD4F8D919C9159
:10013000EA5AFD4F21913081860F971F241F351FEA
:10014000F701EE0FFF1FEE0FFF1FEC5AFD4F8193DB
:100150009193208331831F910F91FF90EF90089529
:100160008CE091E009C080E091E048E250E0BD0100
:100170000E941E0480E091E048E250E0BF010E942E
:100180001E04CF93DF932F923F924F925F926F9214
:100190007F928F929F92AF92BF92CF92DF92EF9217
:1001A000FF920F931F93CDB7DEB72A970FB6F8943F
:1001B000DEBF0FBECDBF0E9432020E944203789480
:1001C00080EB91E064E170E00E948A0284EC91E0AF
:1001D00061E070E05B010E948A0284E690E00E9488
:1001E0002E0301E0CE0101962C0185EC91E04C013B
:1001F0008AE090E01C0121C0A02FBB27AA0FBB1FE3
:10020000AA0FBB1FFD01EA5AFD4F61917081AC5AE4
:10021000BD4F4D915C916201C6010E949D01C601D6
:10022000B1010E94490284EC91E0B5010E948A026A
:1002300084E690E00E942E0303953201C301102F43
:10024000612F0E944B01C30163E070E00E944902EC
:100250007401C7016501B6010E948A020E944E0323
:100260009C01C301AB01B9010E949D01C301B10111
:100270000E944902C701B6010E948A02812F0E9492
:100280005300183209F0B8CF88E191E068E270E0DD
:10029000AB010E941E04CF93DF93EF92FF921F9356
:1002A000CDB7DEB723970FB6F894DEBF0FBECDBF34
:1002B00020E230E229833A8320E32B83603009F483
:1002C00022C0E2E0F0E023E030E079019E012F5F00
:1002D0003F4F4DEC5AE0D701EA17FB0708F026C064
:1002E000D901AE0FBF1F649F712D112476957695AD
:1002F000769575021124162F101910631C933197EF
:100300006A30672F40F729813A81DC012D933D93B4
:100310008B818C9323960FB6F894DEBF0FBECDBFB2
:100320001F91FF90EF90DF91CF91089584E291E0CB
:1003300043E050E0BF010E941E04CF93DF932F9251
:100340003F924F925F926F927F928F929F92AF9265
:10035000BF92CF92DF92EF92FF920F931F93CDB790
:10036000DEB72A970FB6F894DEBF0FBECDBF7B0174
:100370006A015C0180E2898780E290E28F8398873E
:100380008D839E838B839C8389839A8380E38A8772
:1003900020E030E081E0C216D3063901E206F30620
:1003A00009F080E08170803009F027C0E9E0F0E0DA
:1003B0000AE010E0CE0101961C01E017F1072F01C1
:1003C00008F049C0B601C70198014301A4010E9489
:1003D0001F046063C101DC01A40DB51D6C9381E0B5
:1003E000C016D106E804F904F20108F080E081703B
:1003F0003197803069017A0101F389859A85F50189
:10040000808791878F819885868397838D819E8150
:100410008483958389819A81819391938B819C8137
:10042000808391832A960FB6F894DEBF0FBECDBFAE
:100430001F910F91FF90EF90DF90CF90BF90AF9002
:100440009F908F907F906F905F904F903F902F90F4
:10045000DF91CF91089584E291E04AE050E0B2014B
:100460000E941E0480E08093C50080E18093C40058
:100470008091C00082608093C00088E18093C100B9
:1004800086E08093C2008091C10080688093C100A3
:1004900008950F931F93DC0180E090E068177907BF
:1004A00009F42AC06A0F7B1F80E490E02D918D0132
:1004B000A0913A03B0913B03FD013196EF73F070C8
:1004C0004091380350913903E417F50709F417C038
:1004D000A817B907C0F4A850BD4F2C93F0933B0365
:1004E000E0933A032091C10020622093C100D8011B
:1004F000A617B70709F0DACF1F910F91089580E38F
:1005000091E00E941D0480E491E040E450E0BD01D0
:100510000E941E04CF92DF92EF92FF920F931F93DF
:1005200020E030E06217730709F486C0680F791F76
:1005300020E430E0690140E050E07A01FC012191C3
:1005400022231AF0CF01422F53C0E617F70749F0D4
:10055000029640814F7355278C01FC01203E30F4F8
:1005600010C08B01C701AC01203E58F0C80106172E
:10057000170789F0FC01A191AF730A2F1127CF0152
:100580000CC0220F220F220F220F220F220F422B0C
:10059000532BCF012DC0CB018701440F551F440FB2
:1005A000551F440F551F440F551F440F551F440F2F
:1005B000551F402B512B203F48F08617970741F0DD
:1005C000DC01ED91CD01EF73FF2704C0CF0110C016
:1005D000CF01F701440F551F440F551F440F551FFE
:1005E000440F551F440F551F440F551F4E2B5F2BB3
:1005F000A0913A03B0913B03FD013196EF73F07087
:100600000091380310913903E017F10709F41BC07A
:100610009601A217B307D8F4A850BD4F4C93F0939E
:100620003B03E0933A034091C10040624093C10014
:100630008617970709F082CF1F910F91FF90EF90D7
:10064000DF90CF90089580E391E00E941D0480E444
:1006500091E040E450E0BD010E941E0420E030E043
:100660008217930771F020E030E04AE65AE0F90182
:100670003196D9011196A417B507E0F3E817F907E9
:10068000B8F3089584B5826084BD85B5836085BD67
:1006900089EF87BD82E080936E0008958091F60215
:1006A0009091F7026091F4027091F50208950F9213
:1006B0001F920FB60F9200240F921F922F933F9319
:1006C0004F935F936F937F938F939F93AF93BF935A
:1006D000EF93FF938091C600A0917E03B0917F03BA
:1006E000FD013196EF73F07020917C0330917D0312
:1006F000E217F30709F41FC020E430E0A217B307A4
:10070000F0F4A45CBC4F8C93F0937F03E0937E03E2
:10071000FF91EF91BF91AF919F918F917F916F91D9
:100720005F914F913F912F911F900F900F900FBEAF
:100730001F900F90189580E391E00E941D0480E4C3
:1007400091E040E450E0BD010E941E040F921F9210
:100750000FB60F9200240F921F922F933F934F9347
:100760005F936F937F938F939F93AF93BF93EF9319
:10077000FF93E0913803F091390380913A0390910F
:100780003B03E817F90731F48091C1008F7D809316
:10079000C10013C080E490E0E817F90708F020C01A
:1007A000DF01A850BD4F8C913196EF73F070F0933C
:1007B0003903E09338038093C600FF91EF91BF9116
:1007C000AF919F918F917F916F915F914F913F91E9
:1007D0002F911F900F900F900FBE1F900F901895A4
:1007E0008CE491E040E450E0BF010E941E040F92AF
:1007F0001F920FB60F9200242F933F938F939F93D6
:100800008091F4029091F5022091F6023091F70266
:100810008F5F9F4F2F4F3F4F3093F7022093F60289
:100820009093F5028093F4029F918F913F912F91C5
:100830000F900FBE1F900F901895FFCFFFCFA1E232
:100840001A2EAA1BBB1BFD010DC0AA1FBB1FEE1F4A
:10085000FF1FA217B307E407F50720F0A21BB30B95
:10086000E40BF50B661F771F881F991F1A9469F711
:1008700060957095809590959B01AC01BD01CF016D
:060880000895F894FFCF7B
:10088600B0003900370300000A00000000000B002A
:10089600330000001100000000000B0054000000AF
:1008A60012000000E80033000F00000016000000F0
:1008B60000000E00100133003000000008000000A8
:1008C6001001330031000000090000001001330060
:1008D60037000000140000000000000000000000C7
:1008E6002F686F6D652F757365722F4465762F457A
:1008F6006D6265646465642D527573742F737263DB
:100906002F6C6962636F72652F7372632F736C69E4
:1009160063652F6D6F642E72737372632F6D6169D9
:100926006E2E727300000000000000000000000040
:100936006176725F746573745F706572666F726DEF
:10094600616E63650A2000000000000000000000E0
:100956002F686F6D652F757365722F4465762F4509
:100966006D6265646465642D527573742F7372636A
:100976002F6176726C69622F7372632F69746F616F
:100986002E72736578706C696369742070616E6924
:1009960063000000000000000000000000000000EE
:1009A6002F686F6D652F757365722F4465762F45B9
:1009B6006D6265646465642D527573742F7372631A
:1009C6002F6176726C69622F7372632F6669666F28
:0409D6002E7273000A
:00000001FF
