:100000000C9434000C9451000C9451000C94510049
:100010000C9451000C9451000C9451000C9451001C
:100020000C9451000C9451000C9451000C9451000C
:100030000C9451000C9451000C94F7010C94510055
:100040000C9451000C9451000C9457010C94A6018F
:100050000C9451000C9451000C9451000C945100DC
:100060000C9451000C94510011241FBECFEFD8E026
:10007000DEBFCDBF11E0A0E0B1E0E2E4F4E002C0F9
:1000800005900D92A439B107D9F722E0A4E9B1E0B7
:1000900001C01D92A032B207E1F70E9453000C94F8
:1000A0001F020C9400000E947000789480E391E09D
:1000B00067E170E00E94B30087E491E061E070E0E6
:1000C0000E94B3008BEA98B1943009F082E40E9458
:1000D00087000E9487008091EFBE0E948700FFCFBB
:1000E00080E08093C50080E18093C4008091C000CF
:1000F00082608093C00088E18093C10086E0809395
:10010000C2008091C10080688093C1000895A091D1
:10011000DA01B091DB01FD013196EF73F0702091AF
:10012000D8013091D901E217F30791F020E430E0D3
:10013000A217B30788F4A856BE4F8C93F093DB0147
:10014000E093DA018091C10080628093C10008953C
:1001500080E091E00E941D0280E191E040E450E0E7
:10016000BD010E941E02CF92DF92EF92FF920F9389
:100170001F9320E030E06217730709F486C0680F10
:10018000791F20E430E0690140E050E07A01FC0191
:10019000219122231AF0CF01422F53C0E617F7070F
:1001A00049F0029640814F7355278C01FC01203E97
:1001B00030F410C08B01C701AC01203E58F0C801DB
:1001C0000617170789F0FC01A191AF730A2F1127B9
:1001D000CF010CC0220F220F220F220F220F220F5D
:1001E000422B532BCF012DC0CB018701440F551F4C
:1001F000440F551F440F551F440F551F440F551FE3
:10020000440F551F402B512B203F48F0861797076E
:1002100041F0DC01ED91CD01EF73FF2704C0CF0168
:1002200010C0CF01F701440F551F440F551F440F55
:10023000551F440F551F440F551F440F551F4E2B7C
:100240005F2BA091DA01B091DB01FD013196EF73D4
:10025000F0700091D8011091D901E017F10709F46D
:100260001BC09601A217B307D8F4A856BE4F4C93F3
:10027000F093DB01E093DA014091C10040624093CA
:10028000C1008617970709F082CF1F910F91FF9049
:10029000EF90DF90CF90089580E091E00E941D02E2
:1002A00080E191E040E450E0BD010E941E020F9207
:1002B0001F920FB60F9200240F921F922F933F931D
:1002C0004F935F936F937F938F939F93AF93BF935E
:1002D000EF93FF938091C600A0911E02B0911F0280
:1002E000FD013196EF73F07020911C0230911D02D8
:1002F000E217F30709F41FC020E430E0A217B307A8
:10030000F0F4A452BE4F8C93F0931F02E0931E02B0
:10031000FF91EF91BF91AF919F918F917F916F91DD
:100320005F914F913F912F911F900F900F900FBEB3
:100330001F900F90189580E091E00E941D0280E1CF
:1003400091E040E450E0BD010E941E020F921F9216
:100350000FB60F9200240F921F922F933F934F934B
:100360005F936F937F938F939F93AF93BF93EF931D
:10037000FF93E091D801F091D9018091DA01909139
:10038000DB01E817F90731F48091C1008F7D80937C
:10039000C10013C080E490E0E817F90708F020C01E
:1003A000DF01A856BE4F8C913196EF73F070F09339
:1003B000D901E093D8018093C600FF91EF91BF91DE
:1003C000AF919F918F917F916F915F914F913F91ED
:1003D0002F911F900F900F900FBE1F900F901895A8
:1003E0008CE191E040E450E0BF010E941E020F92B8
:1003F0001F920FB60F9200242F933F938F939F93DA
:1004000080919401909195012091960130919701EE
:100410008F5F9F4F2F4F3F4F30939701209396014F
:1004200090939501809394019F918F913F912F918B
:100430000F900FBE1F900F901895FFCFFFCFF8942D
:02044000FFCFEC
:10044200A4000E00B00033003000000008000000DD
:10045200B00033003100000009000000B00033009A
:10046200370000001400000000000000000000003F
:100472006176725F746573745F756E696E697469B3
:1004820074616C697A65640A6578706C6963697411
:100492002070616E6963000000000000000000002F
:1004A2002F686F6D652F757365722F4465762F45C2
:1004B2006D6265646465642D527573742F73726323
:1004C2002F6176726C69622F7372632F6669666F31
:0404D2002E72730013
:00000001FF
