:100000000C9434000C9451000C9451000C94510049
:100010000C9451000C9451000C9451000C9451001C
:100020000C9451000C9451000C9451000C9451000C
:100030000C9451000C9451000C9451000C945100FC
:100040000C9451000C9451000C9451000C945100EC
:100050000C9451000C9451000C9451000C945100DC
:100060000C9451000C94510011241FBECFEFD8E026
:10007000DEBFCDBF11E0A0E0B1E0E4E2F1E002C0FC
:1000800005900D92A030B107D9F721E0A0E0B1E0D2
:1000900001C01D92A030B207E1F70E9453000C94FA
:1000A00090000C9400001F938FEF84B920E030E0A3
:1000B00040E85AE166E070E090E085B9F901D901C5
:1000C000EF5FFF4FAF4FBF4F11E0E417F507A607F3
:1000D000B7070CF010E01170103091F795B9F901E5
:1000E000D901EF5FFF4FAF4FBF4F11E0E417F507A6
:1000F000A607B7070CF010E01170103091F7F90166
:10010000D901EF5FFF4FAF4FBF4F11E0E417F50785
:10011000A607B7070CF010E01170103091F7CDCFA3
:04012000F894FFCF81
:00000001FF
