:100000000C9434000C9451000C9451000C94510049
:100010000C9451000C9451000C9451000C9451001C
:100020000C9451000C9451000C9451000C9451000C
:100030000C9451000C9451000C9402030C94510048
:100040000C9451000C9451000C9462020C94B10277
:100050000C9451000C9451000C9451000C945100DC
:100060000C9451000C94510011241FBECFEFD8E026
:10007000DEBFCDBF12E0A0E0B1E0E8E5F6E002C0EF
:1000800005900D92A632B107D9F722E0A6E2B2E0C0
:1000900001C01D92A23BB207E1F70E9453000C94ED
:1000A0002A030C940000CF93DF932F923F924F923C
:1000B0005F926F927F928F929F92AF92BF92CF92F8
:1000C000DF92EF92FF920F931F93CDB7DEB7609749
:1000D0000FB6F894DEBF0FBECDBF259A0E94D000A8
:1000E000789484E491E06FE070E00E94280183E559
:1000F00091E061E070E06B010E94280180E290E2F3
:100100008F87988B8D879E878B879C8789879A8717
:100110008F8398878D839E838B839C8389839A8327
:1001200000E010E084E090E05C01CE0101963C012B
:1001300080E190E01C0184EF91E07C011AC0C501D0
:100140002101B2014301A40192010E943402C401C1
:10015000B2010E94E70083E591E0B6010E94280108
:100160004701C4010E9412022D98C4010E9412028C
:100170002D9A0E94CC018017910709F348010E9433
:10018000EB01282FC4010496622F0E942602C401AD
:1001900001964C010E94CC018017910781F7CFCFC7
:1001A00080E08093C50080E18093C4008091C0000E
:1001B00082608093C00088E18093C10086E08093D4
:1001C000C2008091C10080688093C10008950F93A0
:1001D0001F93DC0180E090E06817790709F42AC0DA
:1001E0006A0F7B1F80E490E02D918D01A0916C023D
:1001F000B0916D02FD013196EF73F07040916A028B
:1002000050916B02E417F50709F417C0A817B90756
:10021000C0F4A65DBD4F2C93F0936D02E0936C0289
:100220002091C10020622093C100D801A617B70712
:1002300009F0DACF1F910F91089580E091E00E94BC
:10024000280380E191E040E450E0BD010E942903D1
:10025000CF92DF92EF92FF920F931F9320E030E056
:100260006217730709F486C0680F791F20E430E035
:10027000690140E050E07A01FC01219122231AF04B
:10028000CF01422F53C0E617F70749F0029640818D
:100290004F7355278C01FC01203E30F410C08B01B8
:1002A000C701AC01203E58F0C8010617170789F0B6
:1002B000FC01A191AF730A2F1127CF010CC0220FAF
:1002C000220F220F220F220F220F422B532BCF017E
:1002D0002DC0CB018701440F551F440F551F440FFC
:1002E000551F440F551F440F551F440F551F402BDA
:1002F000512B203F48F08617970741F0DC01ED9124
:10030000CD01EF73FF2704C0CF0110C0CF01F7016B
:10031000440F551F440F551F440F551F440F551FC1
:10032000440F551F440F551F4E2B5F2BA0916C029D
:10033000B0916D02FD013196EF73F07000916A0289
:1003400010916B02E017F10709F41BC09601A21788
:10035000B307D8F4A65DBD4F4C93F0936D02E093C4
:100360006C024091C10040624093C100861797071C
:1003700009F082CF1F910F91FF90EF90DF90CF9007
:10038000089580E091E00E94280380E191E040E43C
:1003900050E0BD010E9429032091AE023091AF02CE
:1003A0008091B0029091B10241E08217930708F06A
:1003B00040E05527440F551F440F551F440F551F4C
:1003C000440F551F440F551F440F551F821B930B9D
:1003D000840F951F0895E091AE02F091AF028091D5
:1003E000B0029091B102E817F90789F080E490E03B
:1003F000E817F90780F4DF01A259BD4F8C913196BF
:10040000EF73F070F093AF02E093AE02089588E2CC
:1004100091E00E9428038CE191E040E450E0BF01AC
:100420000E94290320E030E08217930771F020E05A
:1004300030E04AE65AE0F9013196D9011196A41745
:10044000B507E0F3E817F907B8F308952FB3227062
:100450002030E1F792BD81BD60BDF89484E08FBB90
:1004600082E08FBB78940895EF92FF920F931F93D1
:10047000E0E0F0E06E177F07D1F0A0E0B0E011E01F
:10048000FD0131960FB302700030E1F77D01E80EF7
:10049000F91EF2BCE1BC1FBB00B5A217B30760F4A4
:1004A000A40FB51F0C93E617F707DF0148F31F9160
:1004B0000F91FF90EF90089588E391E0BD01A901AD
:1004C0000E9429030F921F920FB60F9200240F92E1
:1004D0001F922F933F934F935F936F937F938F93CD
:1004E0009F93AF93BF93EF93FF938091C600A0912A
:1004F000B002B091B102FD013196EF73F07020911E
:10050000AE023091AF02E217F30709F41FC020E4F6
:1005100030E0A217B307F0F4A259BD4F8C93F093CB
:10052000B102E093B002FF91EF91BF91AF919F9123
:100530008F917F916F915F914F913F912F911F907C
:100540000F900F900FBE1F900F90189580E091E0D4
:100550000E94280380E191E040E450E0BD010E9448
:1005600029030F921F920FB60F9200240F921F9231
:100570002F933F934F935F936F937F938F939F93AB
:10058000AF93BF93EF93FF93E0916A02F0916B02F8
:1005900080916C0290916D02E817F90731F4809117
:1005A000C1008F7D8093C10013C080E490E0E81704
:1005B000F90708F020C0DF01A65DBD4F8C91319690
:1005C000EF73F070F0936B02E0936A028093C600C1
:1005D000FF91EF91BF91AF919F918F917F916F911B
:1005E0005F914F913F912F911F900F900F900FBEF1
:1005F0001F900F9018958CE191E040E450E0BF010E
:100600000E9429030F921F920FB60F9200242F937E
:100610003F938F939F938091260290912702209180
:100620002802309129028F5F9F4F2F4F3F4F309309
:1006300029022093280290932702809326029F91FB
:100640008F913F912F910F900FBE1F900F90189593
:08065000FFCFFFCFF894FFCFAC
:10065800AA000E00B80033003000000008000000B7
:10066800B80033003100000009000000B800330072
:100678003700000014000000AA000E00D800330064
:100688003D00000004000000F800350020000000D4
:10069800090000006176725F746573745F65657048
:1006A800726F6D0A6578706C696369742070616E29
:1006B8006963000000000000000000000000000066
:1006C8002F686F6D652F757365722F4465762F459A
:1006D8006D6265646465642D527573742F737263FB
:1006E8002F6176726C69622F7372632F6669666F09
:1006F8002E727300000000000000000000000000DF
:100708002F686F6D652F757365722F4465762F4559
:100718006D6265646465642D527573742F737263BA
:100728002F6176726C69622F7372632F75617274B0
:100738002E7273000000000000000000000000009E
:100748002F686F6D652F757365722F4465762F4519
:100758006D6265646465642D527573742F7372637A
:100768002F6176726C69622F7372632F6565707280
:060778006F6D2E7273008C
:00000001FF
